{
  "_format": "hh-sol-artifact-1",
  "contractName": "QuizResult",
  "sourceName": "contracts/QuizResult.sol",
  "abi": [
    {
      "inputs": [
        {
          "internalType": "string",
          "name": "name_",
          "type": "string"
        },
        {
          "internalType": "string",
          "name": "symbol_",
          "type": "string"
        },
        {
          "internalType": "string",
          "name": "baseURI_",
          "type": "string"
        }
      ],
      "stateMutability": "nonpayable",
      "type": "constructor"
    },
    {
      "anonymous": false,
      "inputs": [
        {
          "indexed": true,
          "internalType": "address",
          "name": "owner",
          "type": "address"
        },
        {
          "indexed": true,
          "internalType": "address",
          "name": "approved",
          "type": "address"
        },
        {
          "indexed": true,
          "internalType": "uint256",
          "name": "tokenId",
          "type": "uint256"
        }
      ],
      "name": "Approval",
      "type": "event"
    },
    {
      "anonymous": false,
      "inputs": [
        {
          "indexed": true,
          "internalType": "address",
          "name": "owner",
          "type": "address"
        },
        {
          "indexed": true,
          "internalType": "address",
          "name": "operator",
          "type": "address"
        },
        {
          "indexed": false,
          "internalType": "bool",
          "name": "approved",
          "type": "bool"
        }
      ],
      "name": "ApprovalForAll",
      "type": "event"
    },
    {
      "anonymous": false,
      "inputs": [
        {
          "indexed": true,
          "internalType": "address",
          "name": "previousOwner",
          "type": "address"
        },
        {
          "indexed": true,
          "internalType": "address",
          "name": "newOwner",
          "type": "address"
        }
      ],
      "name": "OwnershipTransferred",
      "type": "event"
    },
    {
      "anonymous": false,
      "inputs": [
        {
          "indexed": false,
          "internalType": "address",
          "name": "player",
          "type": "address"
        }
      ],
      "name": "ScoresUpdated",
      "type": "event"
    },
    {
      "anonymous": false,
      "inputs": [
        {
          "indexed": true,
          "internalType": "address",
          "name": "from",
          "type": "address"
        },
        {
          "indexed": true,
          "internalType": "address",
          "name": "to",
          "type": "address"
        },
        {
          "indexed": true,
          "internalType": "uint256",
          "name": "tokenId",
          "type": "uint256"
        }
      ],
      "name": "Transfer",
      "type": "event"
    },
    {
      "inputs": [
        {
          "internalType": "address",
          "name": "to",
          "type": "address"
        },
        {
          "internalType": "uint256",
          "name": "tokenId",
          "type": "uint256"
        }
      ],
      "name": "approve",
      "outputs": [],
      "stateMutability": "nonpayable",
      "type": "function"
    },
    {
      "inputs": [
        {
          "internalType": "address",
          "name": "owner",
          "type": "address"
        }
      ],
      "name": "balanceOf",
      "outputs": [
        {
          "internalType": "uint256",
          "name": "",
          "type": "uint256"
        }
      ],
      "stateMutability": "view",
      "type": "function"
    },
    {
      "inputs": [
        {
          "internalType": "uint256",
          "name": "tokenId",
          "type": "uint256"
        }
      ],
      "name": "getApproved",
      "outputs": [
        {
          "internalType": "address",
          "name": "",
          "type": "address"
        }
      ],
      "stateMutability": "view",
      "type": "function"
    },
    {
      "inputs": [
        {
          "internalType": "address",
          "name": "owner",
          "type": "address"
        },
        {
          "internalType": "address",
          "name": "operator",
          "type": "address"
        }
      ],
      "name": "isApprovedForAll",
      "outputs": [
        {
          "internalType": "bool",
          "name": "",
          "type": "bool"
        }
      ],
      "stateMutability": "view",
      "type": "function"
    },
    {
      "inputs": [],
      "name": "merkleRoot",
      "outputs": [
        {
          "internalType": "bytes32",
          "name": "",
          "type": "bytes32"
        }
      ],
      "stateMutability": "view",
      "type": "function"
    },
    {
      "inputs": [
        {
          "internalType": "bytes32[]",
          "name": "merkleProof_",
          "type": "bytes32[]"
        }
      ],
      "name": "mint",
      "outputs": [],
      "stateMutability": "nonpayable",
      "type": "function"
    },
    {
      "inputs": [],
      "name": "name",
      "outputs": [
        {
          "internalType": "string",
          "name": "",
          "type": "string"
        }
      ],
      "stateMutability": "view",
      "type": "function"
    },
    {
      "inputs": [],
      "name": "owner",
      "outputs": [
        {
          "internalType": "address",
          "name": "",
          "type": "address"
        }
      ],
      "stateMutability": "view",
      "type": "function"
    },
    {
      "inputs": [
        {
          "internalType": "uint256",
          "name": "tokenId",
          "type": "uint256"
        }
      ],
      "name": "ownerOf",
      "outputs": [
        {
          "internalType": "address",
          "name": "",
          "type": "address"
        }
      ],
      "stateMutability": "view",
      "type": "function"
    },
    {
      "inputs": [],
      "name": "renounceOwnership",
      "outputs": [],
      "stateMutability": "nonpayable",
      "type": "function"
    },
    {
      "inputs": [
        {
          "internalType": "address",
          "name": "from",
          "type": "address"
        },
        {
          "internalType": "address",
          "name": "to",
          "type": "address"
        },
        {
          "internalType": "uint256",
          "name": "tokenId",
          "type": "uint256"
        }
      ],
      "name": "safeTransferFrom",
      "outputs": [],
      "stateMutability": "nonpayable",
      "type": "function"
    },
    {
      "inputs": [
        {
          "internalType": "address",
          "name": "from",
          "type": "address"
        },
        {
          "internalType": "address",
          "name": "to",
          "type": "address"
        },
        {
          "internalType": "uint256",
          "name": "tokenId",
          "type": "uint256"
        },
        {
          "internalType": "bytes",
          "name": "data",
          "type": "bytes"
        }
      ],
      "name": "safeTransferFrom",
      "outputs": [],
      "stateMutability": "nonpayable",
      "type": "function"
    },
    {
      "inputs": [
        {
          "internalType": "address",
          "name": "",
          "type": "address"
        }
      ],
      "name": "scores",
      "outputs": [
        {
          "internalType": "uint8",
          "name": "lastScore",
          "type": "uint8"
        },
        {
          "internalType": "uint8",
          "name": "bestScore",
          "type": "uint8"
        },
        {
          "internalType": "uint8",
          "name": "lastTime",
          "type": "uint8"
        },
        {
          "internalType": "uint8",
          "name": "bestTime",
          "type": "uint8"
        }
      ],
      "stateMutability": "view",
      "type": "function"
    },
    {
      "inputs": [
        {
          "internalType": "address",
          "name": "operator",
          "type": "address"
        },
        {
          "internalType": "bool",
          "name": "approved",
          "type": "bool"
        }
      ],
      "name": "setApprovalForAll",
      "outputs": [],
      "stateMutability": "nonpayable",
      "type": "function"
    },
    {
      "inputs": [
        {
          "internalType": "bytes4",
          "name": "interfaceId",
          "type": "bytes4"
        }
      ],
      "name": "supportsInterface",
      "outputs": [
        {
          "internalType": "bool",
          "name": "",
          "type": "bool"
        }
      ],
      "stateMutability": "view",
      "type": "function"
    },
    {
      "inputs": [],
      "name": "symbol",
      "outputs": [
        {
          "internalType": "string",
          "name": "",
          "type": "string"
        }
      ],
      "stateMutability": "view",
      "type": "function"
    },
    {
      "inputs": [
        {
          "internalType": "uint256",
          "name": "tokenId",
          "type": "uint256"
        }
      ],
      "name": "tokenURI",
      "outputs": [
        {
          "internalType": "string",
          "name": "",
          "type": "string"
        }
      ],
      "stateMutability": "view",
      "type": "function"
    },
    {
      "inputs": [
        {
          "internalType": "address",
          "name": "from",
          "type": "address"
        },
        {
          "internalType": "address",
          "name": "to",
          "type": "address"
        },
        {
          "internalType": "uint256",
          "name": "tokenId",
          "type": "uint256"
        }
      ],
      "name": "transferFrom",
      "outputs": [],
      "stateMutability": "nonpayable",
      "type": "function"
    },
    {
      "inputs": [
        {
          "internalType": "address",
          "name": "newOwner",
          "type": "address"
        }
      ],
      "name": "transferOwnership",
      "outputs": [],
      "stateMutability": "nonpayable",
      "type": "function"
    },
    {
      "inputs": [
        {
          "internalType": "bytes32",
          "name": "merkleRoot_",
          "type": "bytes32"
        },
        {
          "internalType": "address",
          "name": "player",
          "type": "address"
        },
        {
          "internalType": "uint8",
          "name": "lastScore",
          "type": "uint8"
        },
        {
          "internalType": "uint8",
          "name": "lastTime",
          "type": "uint8"
        }
      ],
      "name": "updateScores",
      "outputs": [],
      "stateMutability": "nonpayable",
      "type": "function"
    }
  ],
  "bytecode": "0x60806040523480156200001157600080fd5b50604051620039b2380380620039b2833981810160405281019062000037919062000326565b8282620000596200004d620000b160201b60201c565b620000b960201b60201c565b81600190816200006a91906200062a565b5080600290816200007c91906200062a565b50505080600890816200009091906200062a565b50620000a860076200017d60201b62000ddf1760201c565b50505062000711565b600033905090565b60008060009054906101000a900473ffffffffffffffffffffffffffffffffffffffff169050816000806101000a81548173ffffffffffffffffffffffffffffffffffffffff021916908373ffffffffffffffffffffffffffffffffffffffff1602179055508173ffffffffffffffffffffffffffffffffffffffff168173ffffffffffffffffffffffffffffffffffffffff167f8be0079c531659141344cd1fd0a4f28419497f9722a3daafe3b4186f6b6457e060405160405180910390a35050565b6001816000016000828254019250508190555050565b6000604051905090565b600080fd5b600080fd5b600080fd5b600080fd5b6000601f19601f8301169050919050565b7f4e487b7100000000000000000000000000000000000000000000000000000000600052604160045260246000fd5b620001fc82620001b1565b810181811067ffffffffffffffff821117156200021e576200021d620001c2565b5b80604052505050565b60006200023362000193565b9050620002418282620001f1565b919050565b600067ffffffffffffffff821115620002645762000263620001c2565b5b6200026f82620001b1565b9050602081019050919050565b60005b838110156200029c5780820151818401526020810190506200027f565b60008484015250505050565b6000620002bf620002b98462000246565b62000227565b905082815260208101848484011115620002de57620002dd620001ac565b5b620002eb8482856200027c565b509392505050565b600082601f8301126200030b576200030a620001a7565b5b81516200031d848260208601620002a8565b91505092915050565b6000806000606084860312156200034257620003416200019d565b5b600084015167ffffffffffffffff811115620003635762000362620001a2565b5b6200037186828701620002f3565b935050602084015167ffffffffffffffff811115620003955762000394620001a2565b5b620003a386828701620002f3565b925050604084015167ffffffffffffffff811115620003c757620003c6620001a2565b5b620003d586828701620002f3565b9150509250925092565b600081519050919050565b7f4e487b7100000000000000000000000000000000000000000000000000000000600052602260045260246000fd5b600060028204905060018216806200043257607f821691505b602082108103620004485762000447620003ea565b5b50919050565b60008190508160005260206000209050919050565b60006020601f8301049050919050565b600082821b905092915050565b600060088302620004b27fffffffffffffffffffffffffffffffffffffffffffffffffffffffffffffffff8262000473565b620004be868362000473565b95508019841693508086168417925050509392505050565b6000819050919050565b6000819050919050565b60006200050b62000505620004ff84620004d6565b620004e0565b620004d6565b9050919050565b6000819050919050565b6200052783620004ea565b6200053f620005368262000512565b84845462000480565b825550505050565b600090565b6200055662000547565b620005638184846200051c565b505050565b5b818110156200058b576200057f6000826200054c565b60018101905062000569565b5050565b601f821115620005da57620005a4816200044e565b620005af8462000463565b81016020851015620005bf578190505b620005d7620005ce8562000463565b83018262000568565b50505b505050565b600082821c905092915050565b6000620005ff60001984600802620005df565b1980831691505092915050565b60006200061a8383620005ec565b9150826002028217905092915050565b6200063582620003df565b67ffffffffffffffff811115620006515762000650620001c2565b5b6200065d825462000419565b6200066a8282856200058f565b600060209050601f831160018114620006a257600084156200068d578287015190505b6200069985826200060c565b86555062000709565b601f198416620006b2866200044e565b60005b82811015620006dc57848901518255600182019150602085019450602081019050620006b5565b86831015620006fc5784890151620006f8601f891682620005ec565b8355505b6001600288020188555050505b505050505050565b61329180620007216000396000f3fe608060405234801561001057600080fd5b506004361061012c5760003560e01c8063715018a6116100ad578063b77a147b11610071578063b77a147b14610332578063b88d4fde1461034e578063c87b56dd1461036a578063e985e9c51461039a578063f2fde38b146103ca5761012c565b8063715018a61461029d57806376dd110f146102a75780638da5cb5b146102da57806395d89b41146102f8578063a22cb465146103165761012c565b80632eb4a7ab116100f45780632eb4a7ab146101e75780633c1f4f571461020557806342842e0e146102215780636352211e1461023d57806370a082311461026d5761012c565b806301ffc9a71461013157806306fdde0314610161578063081812fc1461017f578063095ea7b3146101af57806323b872dd146101cb575b600080fd5b61014b60048036038101906101469190612043565b6103e6565b604051610158919061208b565b60405180910390f35b6101696104c8565b6040516101769190612136565b60405180910390f35b6101996004803603810190610194919061218e565b61055a565b6040516101a691906121fc565b60405180910390f35b6101c960048036038101906101c49190612243565b6105a0565b005b6101e560048036038101906101e09190612283565b6106b7565b005b6101ef610717565b6040516101fc91906122ef565b60405180910390f35b61021f600480360381019061021a919061236f565b61071d565b005b61023b60048036038101906102369190612283565b6108af565b005b6102576004803603810190610252919061218e565b6108cf565b60405161026491906121fc565b60405180910390f35b610287600480360381019061028291906123d6565b610955565b6040516102949190612412565b60405180910390f35b6102a5610a0c565b005b6102c160048036038101906102bc91906123d6565b610a20565b6040516102d1949392919061243c565b60405180910390f35b6102e2610a84565b6040516102ef91906121fc565b60405180910390f35b610300610aad565b60405161030d9190612136565b60405180910390f35b610330600480360381019061032b91906124ad565b610b3f565b005b61034c60048036038101906103479190612552565b610b55565b005b610368600480360381019061036391906126cf565b610c35565b005b610384600480360381019061037f919061218e565b610c97565b6040516103919190612136565b60405180910390f35b6103b460048036038101906103af9190612752565b610cc8565b6040516103c1919061208b565b60405180910390f35b6103e460048036038101906103df91906123d6565b610d5c565b005b60007f80ac58cd000000000000000000000000000000000000000000000000000000007bffffffffffffffffffffffffffffffffffffffffffffffffffffffff1916827bffffffffffffffffffffffffffffffffffffffffffffffffffffffff191614806104b157507f5b5e139f000000000000000000000000000000000000000000000000000000007bffffffffffffffffffffffffffffffffffffffffffffffffffffffff1916827bffffffffffffffffffffffffffffffffffffffffffffffffffffffff1916145b806104c157506104c082610df5565b5b9050919050565b6060600180546104d7906127c1565b80601f0160208091040260200160405190810160405280929190818152602001828054610503906127c1565b80156105505780601f1061052557610100808354040283529160200191610550565b820191906000526020600020905b81548152906001019060200180831161053357829003601f168201915b5050505050905090565b600061056582610e5f565b6005600083815260200190815260200160002060009054906101000a900473ffffffffffffffffffffffffffffffffffffffff169050919050565b60006105ab826108cf565b90508073ffffffffffffffffffffffffffffffffffffffff168373ffffffffffffffffffffffffffffffffffffffff160361061b576040517f08c379a000000000000000000000000000000000000000000000000000000000815260040161061290612864565b60405180910390fd5b8073ffffffffffffffffffffffffffffffffffffffff1661063a610eaa565b73ffffffffffffffffffffffffffffffffffffffff161480610669575061066881610663610eaa565b610cc8565b5b6106a8576040517f08c379a000000000000000000000000000000000000000000000000000000000815260040161069f906128f6565b60405180910390fd5b6106b28383610eb2565b505050565b6106c86106c2610eaa565b82610f6b565b610707576040517f08c379a00000000000000000000000000000000000000000000000000000000081526004016106fe90612988565b60405180910390fd5b610712838383611000565b505050565b60095481565b6107256112f9565b60095484146107385761073784611377565b5b6000600a60008573ffffffffffffffffffffffffffffffffffffffff1673ffffffffffffffffffffffffffffffffffffffff1681526020019081526020016000209050818160000160026101000a81548160ff021916908360ff16021790555060008160000160039054906101000a900460ff1660ff1614806107f457508060000160039054906101000a900460ff1660ff168260ff161080156107f357508060000160019054906101000a900460ff1660ff168360ff1610155b5b1561081757818160000160036101000a81548160ff021916908360ff1602179055505b828160000160006101000a81548160ff021916908360ff1602179055508060000160019054906101000a900460ff1660ff168360ff16111561087157828160000160016101000a81548160ff021916908360ff1602179055505b7f01bfccd9705ee9b5f1a81b46bc75a8c7f736ea159856525ab83274e6e22156ab846040516108a091906121fc565b60405180910390a15050505050565b6108ca83838360405180602001604052806000815250610c35565b505050565b6000806108db83611389565b9050600073ffffffffffffffffffffffffffffffffffffffff168173ffffffffffffffffffffffffffffffffffffffff160361094c576040517f08c379a0000000000000000000000000000000000000000000000000000000008152600401610943906129f4565b60405180910390fd5b80915050919050565b60008073ffffffffffffffffffffffffffffffffffffffff168273ffffffffffffffffffffffffffffffffffffffff16036109c5576040517f08c379a00000000000000000000000000000000000000000000000000000000081526004016109bc90612a86565b60405180910390fd5b600460008373ffffffffffffffffffffffffffffffffffffffff1673ffffffffffffffffffffffffffffffffffffffff168152602001908152602001600020549050919050565b610a146112f9565b610a1e60006113c6565b565b600a6020528060005260406000206000915090508060000160009054906101000a900460ff16908060000160019054906101000a900460ff16908060000160029054906101000a900460ff16908060000160039054906101000a900460ff16905084565b60008060009054906101000a900473ffffffffffffffffffffffffffffffffffffffff16905090565b606060028054610abc906127c1565b80601f0160208091040260200160405190810160405280929190818152602001828054610ae8906127c1565b8015610b355780601f10610b0a57610100808354040283529160200191610b35565b820191906000526020600020905b815481529060010190602001808311610b1857829003601f168201915b5050505050905090565b610b51610b4a610eaa565b838361148a565b5050565b600033604051602001610b689190612aee565b604051602081830303815290604052805190602001209050610bce838380806020026020016040519081016040528093929190818152602001838360200280828437600081840152601f19601f82011690508083019250505050505050600954836115f6565b610c0d576040517f08c379a0000000000000000000000000000000000000000000000000000000008152600401610c0490612b55565b60405180910390fd5b6000610c19600761160d565b9050610c256007610ddf565b610c2f338261161b565b50505050565b610c46610c40610eaa565b83610f6b565b610c85576040517f08c379a0000000000000000000000000000000000000000000000000000000008152600401610c7c90612988565b60405180910390fd5b610c9184848484611639565b50505050565b6060610ca282611695565b604051602001610cb29190612bfd565b6040516020818303038152906040529050919050565b6000600660008473ffffffffffffffffffffffffffffffffffffffff1673ffffffffffffffffffffffffffffffffffffffff16815260200190815260200160002060008373ffffffffffffffffffffffffffffffffffffffff1673ffffffffffffffffffffffffffffffffffffffff16815260200190815260200160002060009054906101000a900460ff16905092915050565b610d646112f9565b600073ffffffffffffffffffffffffffffffffffffffff168173ffffffffffffffffffffffffffffffffffffffff1603610dd3576040517f08c379a0000000000000000000000000000000000000000000000000000000008152600401610dca90612c91565b60405180910390fd5b610ddc816113c6565b50565b6001816000016000828254019250508190555050565b60007f01ffc9a7000000000000000000000000000000000000000000000000000000007bffffffffffffffffffffffffffffffffffffffffffffffffffffffff1916827bffffffffffffffffffffffffffffffffffffffffffffffffffffffff1916149050919050565b610e68816116fd565b610ea7576040517f08c379a0000000000000000000000000000000000000000000000000000000008152600401610e9e906129f4565b60405180910390fd5b50565b600033905090565b816005600083815260200190815260200160002060006101000a81548173ffffffffffffffffffffffffffffffffffffffff021916908373ffffffffffffffffffffffffffffffffffffffff160217905550808273ffffffffffffffffffffffffffffffffffffffff16610f25836108cf565b73ffffffffffffffffffffffffffffffffffffffff167f8c5be1e5ebec7d5bd14f71427d1e84f3dd0314c0f7b2291e5b200ac8c7c3b92560405160405180910390a45050565b600080610f77836108cf565b90508073ffffffffffffffffffffffffffffffffffffffff168473ffffffffffffffffffffffffffffffffffffffff161480610fb95750610fb88185610cc8565b5b80610ff757508373ffffffffffffffffffffffffffffffffffffffff16610fdf8461055a565b73ffffffffffffffffffffffffffffffffffffffff16145b91505092915050565b8273ffffffffffffffffffffffffffffffffffffffff16611020826108cf565b73ffffffffffffffffffffffffffffffffffffffff1614611076576040517f08c379a000000000000000000000000000000000000000000000000000000000815260040161106d90612d23565b60405180910390fd5b600073ffffffffffffffffffffffffffffffffffffffff168273ffffffffffffffffffffffffffffffffffffffff16036110e5576040517f08c379a00000000000000000000000000000000000000000000000000000000081526004016110dc90612db5565b60405180910390fd5b6110f2838383600161173e565b8273ffffffffffffffffffffffffffffffffffffffff16611112826108cf565b73ffffffffffffffffffffffffffffffffffffffff1614611168576040517f08c379a000000000000000000000000000000000000000000000000000000000815260040161115f90612d23565b60405180910390fd5b6005600082815260200190815260200160002060006101000a81549073ffffffffffffffffffffffffffffffffffffffff02191690556001600460008573ffffffffffffffffffffffffffffffffffffffff1673ffffffffffffffffffffffffffffffffffffffff168152602001908152602001600020600082825403925050819055506001600460008473ffffffffffffffffffffffffffffffffffffffff1673ffffffffffffffffffffffffffffffffffffffff16815260200190815260200160002060008282540192505081905550816003600083815260200190815260200160002060006101000a81548173ffffffffffffffffffffffffffffffffffffffff021916908373ffffffffffffffffffffffffffffffffffffffff160217905550808273ffffffffffffffffffffffffffffffffffffffff168473ffffffffffffffffffffffffffffffffffffffff167fddf252ad1be2c89b69c2b068fc378daa952ba7f163c4a11628f55a4df523b3ef60405160405180910390a46112f48383836001611864565b505050565b611301610eaa565b73ffffffffffffffffffffffffffffffffffffffff1661131f610a84565b73ffffffffffffffffffffffffffffffffffffffff1614611375576040517f08c379a000000000000000000000000000000000000000000000000000000000815260040161136c90612e21565b60405180910390fd5b565b61137f6112f9565b8060098190555050565b60006003600083815260200190815260200160002060009054906101000a900473ffffffffffffffffffffffffffffffffffffffff169050919050565b60008060009054906101000a900473ffffffffffffffffffffffffffffffffffffffff169050816000806101000a81548173ffffffffffffffffffffffffffffffffffffffff021916908373ffffffffffffffffffffffffffffffffffffffff1602179055508173ffffffffffffffffffffffffffffffffffffffff168173ffffffffffffffffffffffffffffffffffffffff167f8be0079c531659141344cd1fd0a4f28419497f9722a3daafe3b4186f6b6457e060405160405180910390a35050565b8173ffffffffffffffffffffffffffffffffffffffff168373ffffffffffffffffffffffffffffffffffffffff16036114f8576040517f08c379a00000000000000000000000000000000000000000000000000000000081526004016114ef90612e8d565b60405180910390fd5b80600660008573ffffffffffffffffffffffffffffffffffffffff1673ffffffffffffffffffffffffffffffffffffffff16815260200190815260200160002060008473ffffffffffffffffffffffffffffffffffffffff1673ffffffffffffffffffffffffffffffffffffffff16815260200190815260200160002060006101000a81548160ff0219169083151502179055508173ffffffffffffffffffffffffffffffffffffffff168373ffffffffffffffffffffffffffffffffffffffff167f17307eab39ab6107e8899845ad3d59bd9653f200f220920489ca2b5937696c31836040516115e9919061208b565b60405180910390a3505050565b600082611603858461186a565b1490509392505050565b600081600001549050919050565b6116358282604051806020016040528060008152506118c0565b5050565b611644848484611000565b6116508484848461191b565b61168f576040517f08c379a000000000000000000000000000000000000000000000000000000000815260040161168690612f1f565b60405180910390fd5b50505050565b60606116a082610e5f565b60006116aa611aa2565b905060008151116116ca57604051806020016040528060008152506116f5565b806116d484611b34565b6040516020016116e5929190612f3f565b6040516020818303038152906040525b915050919050565b60008073ffffffffffffffffffffffffffffffffffffffff1661171f83611389565b73ffffffffffffffffffffffffffffffffffffffff1614159050919050565b600181111561185e57600073ffffffffffffffffffffffffffffffffffffffff168473ffffffffffffffffffffffffffffffffffffffff16146117d25780600460008673ffffffffffffffffffffffffffffffffffffffff1673ffffffffffffffffffffffffffffffffffffffff16815260200190815260200160002060008282546117ca9190612f92565b925050819055505b600073ffffffffffffffffffffffffffffffffffffffff168373ffffffffffffffffffffffffffffffffffffffff161461185d5780600460008573ffffffffffffffffffffffffffffffffffffffff1673ffffffffffffffffffffffffffffffffffffffff16815260200190815260200160002060008282546118559190612fc6565b925050819055505b5b50505050565b50505050565b60008082905060005b84518110156118b5576118a08286838151811061189357611892612ffa565b5b6020026020010151611c02565b915080806118ad90613029565b915050611873565b508091505092915050565b6118ca8383611c2d565b6118d7600084848461191b565b611916576040517f08c379a000000000000000000000000000000000000000000000000000000000815260040161190d90612f1f565b60405180910390fd5b505050565b600061193c8473ffffffffffffffffffffffffffffffffffffffff16611e4a565b15611a95578373ffffffffffffffffffffffffffffffffffffffff1663150b7a02611965610eaa565b8786866040518563ffffffff1660e01b815260040161198794939291906130c6565b6020604051808303816000875af19250505080156119c357506040513d601f19601f820116820180604052508101906119c09190613127565b60015b611a45573d80600081146119f3576040519150601f19603f3d011682016040523d82523d6000602084013e6119f8565b606091505b506000815103611a3d576040517f08c379a0000000000000000000000000000000000000000000000000000000008152600401611a3490612f1f565b60405180910390fd5b805181602001fd5b63150b7a0260e01b7bffffffffffffffffffffffffffffffffffffffffffffffffffffffff1916817bffffffffffffffffffffffffffffffffffffffffffffffffffffffff191614915050611a9a565b600190505b949350505050565b606060088054611ab1906127c1565b80601f0160208091040260200160405190810160405280929190818152602001828054611add906127c1565b8015611b2a5780601f10611aff57610100808354040283529160200191611b2a565b820191906000526020600020905b815481529060010190602001808311611b0d57829003601f168201915b5050505050905090565b606060006001611b4384611e6d565b01905060008167ffffffffffffffff811115611b6257611b616125a4565b5b6040519080825280601f01601f191660200182016040528015611b945781602001600182028036833780820191505090505b509050600082602001820190505b600115611bf7578080600190039150507f3031323334353637383961626364656600000000000000000000000000000000600a86061a8153600a8581611beb57611bea613154565b5b04945060008503611ba2575b819350505050919050565b6000818310611c1a57611c158284611fc0565b611c25565b611c248383611fc0565b5b905092915050565b600073ffffffffffffffffffffffffffffffffffffffff168273ffffffffffffffffffffffffffffffffffffffff1603611c9c576040517f08c379a0000000000000000000000000000000000000000000000000000000008152600401611c93906131cf565b60405180910390fd5b611ca5816116fd565b15611ce5576040517f08c379a0000000000000000000000000000000000000000000000000000000008152600401611cdc9061323b565b60405180910390fd5b611cf360008383600161173e565b611cfc816116fd565b15611d3c576040517f08c379a0000000000000000000000000000000000000000000000000000000008152600401611d339061323b565b60405180910390fd5b6001600460008473ffffffffffffffffffffffffffffffffffffffff1673ffffffffffffffffffffffffffffffffffffffff16815260200190815260200160002060008282540192505081905550816003600083815260200190815260200160002060006101000a81548173ffffffffffffffffffffffffffffffffffffffff021916908373ffffffffffffffffffffffffffffffffffffffff160217905550808273ffffffffffffffffffffffffffffffffffffffff16600073ffffffffffffffffffffffffffffffffffffffff167fddf252ad1be2c89b69c2b068fc378daa952ba7f163c4a11628f55a4df523b3ef60405160405180910390a4611e46600083836001611864565b5050565b6000808273ffffffffffffffffffffffffffffffffffffffff163b119050919050565b600080600090507a184f03e93ff9f4daa797ed6e38ed64bf6a1f0100000000000000008310611ecb577a184f03e93ff9f4daa797ed6e38ed64bf6a1f0100000000000000008381611ec157611ec0613154565b5b0492506040810190505b6d04ee2d6d415b85acef81000000008310611f08576d04ee2d6d415b85acef81000000008381611efe57611efd613154565b5b0492506020810190505b662386f26fc100008310611f3757662386f26fc100008381611f2d57611f2c613154565b5b0492506010810190505b6305f5e1008310611f60576305f5e1008381611f5657611f55613154565b5b0492506008810190505b6127108310611f85576127108381611f7b57611f7a613154565b5b0492506004810190505b60648310611fa85760648381611f9e57611f9d613154565b5b0492506002810190505b600a8310611fb7576001810190505b80915050919050565b600082600052816020526040600020905092915050565b6000604051905090565b600080fd5b600080fd5b60007fffffffff0000000000000000000000000000000000000000000000000000000082169050919050565b61202081611feb565b811461202b57600080fd5b50565b60008135905061203d81612017565b92915050565b60006020828403121561205957612058611fe1565b5b60006120678482850161202e565b91505092915050565b60008115159050919050565b61208581612070565b82525050565b60006020820190506120a0600083018461207c565b92915050565b600081519050919050565b600082825260208201905092915050565b60005b838110156120e05780820151818401526020810190506120c5565b60008484015250505050565b6000601f19601f8301169050919050565b6000612108826120a6565b61211281856120b1565b93506121228185602086016120c2565b61212b816120ec565b840191505092915050565b6000602082019050818103600083015261215081846120fd565b905092915050565b6000819050919050565b61216b81612158565b811461217657600080fd5b50565b60008135905061218881612162565b92915050565b6000602082840312156121a4576121a3611fe1565b5b60006121b284828501612179565b91505092915050565b600073ffffffffffffffffffffffffffffffffffffffff82169050919050565b60006121e6826121bb565b9050919050565b6121f6816121db565b82525050565b600060208201905061221160008301846121ed565b92915050565b612220816121db565b811461222b57600080fd5b50565b60008135905061223d81612217565b92915050565b6000806040838503121561225a57612259611fe1565b5b60006122688582860161222e565b925050602061227985828601612179565b9150509250929050565b60008060006060848603121561229c5761229b611fe1565b5b60006122aa8682870161222e565b93505060206122bb8682870161222e565b92505060406122cc86828701612179565b9150509250925092565b6000819050919050565b6122e9816122d6565b82525050565b600060208201905061230460008301846122e0565b92915050565b612313816122d6565b811461231e57600080fd5b50565b6000813590506123308161230a565b92915050565b600060ff82169050919050565b61234c81612336565b811461235757600080fd5b50565b60008135905061236981612343565b92915050565b6000806000806080858703121561238957612388611fe1565b5b600061239787828801612321565b94505060206123a88782880161222e565b93505060406123b98782880161235a565b92505060606123ca8782880161235a565b91505092959194509250565b6000602082840312156123ec576123eb611fe1565b5b60006123fa8482850161222e565b91505092915050565b61240c81612158565b82525050565b60006020820190506124276000830184612403565b92915050565b61243681612336565b82525050565b6000608082019050612451600083018761242d565b61245e602083018661242d565b61246b604083018561242d565b612478606083018461242d565b95945050505050565b61248a81612070565b811461249557600080fd5b50565b6000813590506124a781612481565b92915050565b600080604083850312156124c4576124c3611fe1565b5b60006124d28582860161222e565b92505060206124e385828601612498565b9150509250929050565b600080fd5b600080fd5b600080fd5b60008083601f840112612512576125116124ed565b5b8235905067ffffffffffffffff81111561252f5761252e6124f2565b5b60208301915083602082028301111561254b5761254a6124f7565b5b9250929050565b6000806020838503121561256957612568611fe1565b5b600083013567ffffffffffffffff81111561258757612586611fe6565b5b612593858286016124fc565b92509250509250929050565b600080fd5b7f4e487b7100000000000000000000000000000000000000000000000000000000600052604160045260246000fd5b6125dc826120ec565b810181811067ffffffffffffffff821117156125fb576125fa6125a4565b5b80604052505050565b600061260e611fd7565b905061261a82826125d3565b919050565b600067ffffffffffffffff82111561263a576126396125a4565b5b612643826120ec565b9050602081019050919050565b82818337600083830152505050565b600061267261266d8461261f565b612604565b90508281526020810184848401111561268e5761268d61259f565b5b612699848285612650565b509392505050565b600082601f8301126126b6576126b56124ed565b5b81356126c684826020860161265f565b91505092915050565b600080600080608085870312156126e9576126e8611fe1565b5b60006126f78782880161222e565b94505060206127088782880161222e565b935050604061271987828801612179565b925050606085013567ffffffffffffffff81111561273a57612739611fe6565b5b612746878288016126a1565b91505092959194509250565b6000806040838503121561276957612768611fe1565b5b60006127778582860161222e565b92505060206127888582860161222e565b9150509250929050565b7f4e487b7100000000000000000000000000000000000000000000000000000000600052602260045260246000fd5b600060028204905060018216806127d957607f821691505b6020821081036127ec576127eb612792565b5b50919050565b7f4552433732313a20617070726f76616c20746f2063757272656e74206f776e6560008201527f7200000000000000000000000000000000000000000000000000000000000000602082015250565b600061284e6021836120b1565b9150612859826127f2565b604082019050919050565b6000602082019050818103600083015261287d81612841565b9050919050565b7f4552433732313a20617070726f76652063616c6c6572206973206e6f7420746f60008201527f6b656e206f776e6572206f7220617070726f76656420666f7220616c6c000000602082015250565b60006128e0603d836120b1565b91506128eb82612884565b604082019050919050565b6000602082019050818103600083015261290f816128d3565b9050919050565b7f4552433732313a2063616c6c6572206973206e6f7420746f6b656e206f776e6560008201527f72206f7220617070726f76656400000000000000000000000000000000000000602082015250565b6000612972602d836120b1565b915061297d82612916565b604082019050919050565b600060208201905081810360008301526129a181612965565b9050919050565b7f4552433732313a20696e76616c696420746f6b656e2049440000000000000000600082015250565b60006129de6018836120b1565b91506129e9826129a8565b602082019050919050565b60006020820190508181036000830152612a0d816129d1565b9050919050565b7f4552433732313a2061646472657373207a65726f206973206e6f74206120766160008201527f6c6964206f776e65720000000000000000000000000000000000000000000000602082015250565b6000612a706029836120b1565b9150612a7b82612a14565b604082019050919050565b60006020820190508181036000830152612a9f81612a63565b9050919050565b60008160601b9050919050565b6000612abe82612aa6565b9050919050565b6000612ad082612ab3565b9050919050565b612ae8612ae3826121db565b612ac5565b82525050565b6000612afa8284612ad7565b60148201915081905092915050565b7f4e6f7420616c6c6f77656420746f206d696e7420746f6b656e00000000000000600082015250565b6000612b3f6019836120b1565b9150612b4a82612b09565b602082019050919050565b60006020820190508181036000830152612b6e81612b32565b9050919050565b600081905092915050565b6000612b8b826120a6565b612b958185612b75565b9350612ba58185602086016120c2565b80840191505092915050565b7f2e6a736f6e3f616c743d6d656469610000000000000000000000000000000000600082015250565b6000612be7600f83612b75565b9150612bf282612bb1565b600f82019050919050565b6000612c098284612b80565b9150612c1482612bda565b915081905092915050565b7f4f776e61626c653a206e6577206f776e657220697320746865207a65726f206160008201527f6464726573730000000000000000000000000000000000000000000000000000602082015250565b6000612c7b6026836120b1565b9150612c8682612c1f565b604082019050919050565b60006020820190508181036000830152612caa81612c6e565b9050919050565b7f4552433732313a207472616e736665722066726f6d20696e636f72726563742060008201527f6f776e6572000000000000000000000000000000000000000000000000000000602082015250565b6000612d0d6025836120b1565b9150612d1882612cb1565b604082019050919050565b60006020820190508181036000830152612d3c81612d00565b9050919050565b7f4552433732313a207472616e7366657220746f20746865207a65726f2061646460008201527f7265737300000000000000000000000000000000000000000000000000000000602082015250565b6000612d9f6024836120b1565b9150612daa82612d43565b604082019050919050565b60006020820190508181036000830152612dce81612d92565b9050919050565b7f4f776e61626c653a2063616c6c6572206973206e6f7420746865206f776e6572600082015250565b6000612e0b6020836120b1565b9150612e1682612dd5565b602082019050919050565b60006020820190508181036000830152612e3a81612dfe565b9050919050565b7f4552433732313a20617070726f766520746f2063616c6c657200000000000000600082015250565b6000612e776019836120b1565b9150612e8282612e41565b602082019050919050565b60006020820190508181036000830152612ea681612e6a565b9050919050565b7f4552433732313a207472616e7366657220746f206e6f6e20455243373231526560008201527f63656976657220696d706c656d656e7465720000000000000000000000000000602082015250565b6000612f096032836120b1565b9150612f1482612ead565b604082019050919050565b60006020820190508181036000830152612f3881612efc565b9050919050565b6000612f4b8285612b80565b9150612f578284612b80565b91508190509392505050565b7f4e487b7100000000000000000000000000000000000000000000000000000000600052601160045260246000fd5b6000612f9d82612158565b9150612fa883612158565b9250828203905081811115612fc057612fbf612f63565b5b92915050565b6000612fd182612158565b9150612fdc83612158565b9250828201905080821115612ff457612ff3612f63565b5b92915050565b7f4e487b7100000000000000000000000000000000000000000000000000000000600052603260045260246000fd5b600061303482612158565b91507fffffffffffffffffffffffffffffffffffffffffffffffffffffffffffffffff820361306657613065612f63565b5b600182019050919050565b600081519050919050565b600082825260208201905092915050565b600061309882613071565b6130a2818561307c565b93506130b28185602086016120c2565b6130bb816120ec565b840191505092915050565b60006080820190506130db60008301876121ed565b6130e860208301866121ed565b6130f56040830185612403565b8181036060830152613107818461308d565b905095945050505050565b60008151905061312181612017565b92915050565b60006020828403121561313d5761313c611fe1565b5b600061314b84828501613112565b91505092915050565b7f4e487b7100000000000000000000000000000000000000000000000000000000600052601260045260246000fd5b7f4552433732313a206d696e7420746f20746865207a65726f2061646472657373600082015250565b60006131b96020836120b1565b91506131c482613183565b602082019050919050565b600060208201905081810360008301526131e8816131ac565b9050919050565b7f4552433732313a20746f6b656e20616c7265616479206d696e74656400000000600082015250565b6000613225601c836120b1565b9150613230826131ef565b602082019050919050565b6000602082019050818103600083015261325481613218565b905091905056fea2646970667358221220cda9db3643d8992781592e5d8ae82c196caa5a4e58f3d6e63c1167b9934375ea64736f6c63430008110033",
  "linkReferences": {},
  "deployedLinkReferences": {}
}